:020000040800F2
:10000000E8B900209D010008D51C0008151C000857
:10001000D11C0008A91500080920000800000000F4
:10002000000000000000000000000000711E000839
:10003000D915000800000000A11D0008C10100083A
:10004000B7010008B7010008B7010008B7010008B0
:10005000B7010008B7010008B7010008B7010008A0
:10006000B7010008B7010008B7010008AD15000886
:10007000B7010008B7010008B7010008B701000880
:10008000B7010008B7010008B7010008B701000870
:10009000B7010008B7010008B7010008B701000860
:1000A000B7010008B7010008B7010008B701000850
:1000B000B7010008B7010008B7010008B701000840
:1000C000B7010008B7010008B7010008B701000830
:1000D000B7010008891F0008B7010008B701000830
:1000E000DD150008B7010008B7010008B7010008D6
:1000F000B7010008B7010008B7010008B701000800
:10010000B7010008B7010008B7010008B7010008EF
:10011000511F0008B7010008B7010008B701000827
:10012000B7010008B7010008B7010008B7010008CF
:10013000B7010008B7010008B7010008B7010008BF
:1001400000000000000000000000000000000000AF
:10015000B7010008B7010008B7010008B70100089F
:10016000B7010008B7010008B7010008B70100088F
:10017000B7010008B7010008B7010008B70100087F
:10018000B7010008DFF810D000F0FAFE01F0F8F92E
:10019000004800475D4F0008E8B900200648804746
:1001A00006480047FEE7FEE7FEE7FEE7FEE7FEE75C
:1001B000FEE7FEE7FEE7FEE7A91E0008850100084E
:1001C00030B410B50448804730BCAE4630BC03485C
:1001D00000477047854670478D540008951E0008FB
:1001E00030B505462A460B4612F8010B13F8014BB1
:1001F00008B1A042F8D01CB1002802D06D1CF1E774
:10020000284630BD10B5044604E00B7800F8013BE9
:1002100003B1491C521EF8D2204610BDCAB2401E7E
:1002200010F8011F8A4202D00029F9D1002070473E
:10023000421C10F8011B0029FBD1801A704710B531
:10024000002200E0521C835C8C5CA34201D1002B95
:10025000F8D1D8B2E1B2401A10BD30B50546002041
:10026000034600E05B1C934205D2EC5CC85C201A9C
:1002700001D1002CF6D130BD70B50F4D00B9286802
:10028000002412E00A4602E09E4203D0521C13787A
:10029000002BF9D1DAB2224305D02BB124B10021D1
:1002A00000F8011B04E00446401C0678002EE9D14A
:1002B0002860204670BD0000040000200FB400B587
:1002C0008DB010A909900B9000914FF0FF300A906B
:1002D00000200C9005480690054807906A4609A83A
:1002E0000F9900F017FC0DB05DF814FB310B0008FE
:1002F0004F0B00082DE9F04791460F468046044613
:10030000002614F8015B2DB100F080F80068405D14
:10031000C007F6D12B2D02D02D2D18D0641E4A46D1
:100320003946204600F024FC27B13968A14201D1AA
:10033000C7F8008071054FF002040BD54042002839
:1003400003DD0BF077F90460A007BDE8F08746F401
:100350008066E4E70028F8DA0BF06CF904606FF0CF
:100360000040F2E770B506460BF064F904680546F4
:100370000A2200213046FFF7BDFF2C6070BD30B56A
:100380000B46014600202022012409E021FA02F553
:100390009D4205D303FA02F5491B04FA02F52844ED
:1003A000151EA2F10102F1DC30BD2DE9F05F05461A
:1003B000002092469B4688460646814640241BE024
:1003C000284641464746224600F001FE53465A461B
:1003D000C01A914110D311461846224600F0E8FD9C
:1003E0002D1A67EB01084F4622460120002100F03C
:1003F000DFFD17EB00094E41201EA4F10104DFDCF4
:10040000484631462A464346BDE8F09F00487047BB
:10041000B8BF000810B50446FFF7F8FF0068005D9C
:1004200000F0010010BD2DE9FF4F1C4681B00021F6
:10043000D4E9016791464FF0FF358A468846A169A5
:100440006D1C02988847216A834688470028F6D1A8
:10045000BBF1FF3F0CD026F4C066002F1ADD7006FA
:1004600015D5BBF12B0F0AD0BBF12D0F0FD104E036
:100470004FF0FF3005B0BDE8F08F46F48066A1690B
:100480006D1C029888477F1E8346002F02DDBBF15A
:10049000300F03D0B9F1000F2AD025E0A1696D1CFF
:1004A00046F400767F1E029888478346002F05DDBC
:1004B000BBF1780F06D0BBF1580F03D0B9F1000F94
:1004C00010D011E0B9F1000F02D0B9F1100F0BD12B
:1004D000A1696D1C26F400767F1E0298884783462A
:1004E000102000E0082081464FEAE970009017E0F4
:1004F0000A20F8E74346AAFB092803FB0980DDF838
:1005000000C07F1E0AFB0C0112EB0B0A41EBEB78DB
:10051000A16946F4007605F10105029888478346F3
:10052000002F06DD4946584600F073FD5FEA000BD8
:10053000E0D5E16902988847B00502D46FF0010068
:1005400098E7F00718D1700610D57005514605D50B
:100550000023D1EB030163EB080200E04246206870
:10056000031D23600068C0E9001205E02068011D3A
:1005700021600068C0E900A828467BE72DE9FF5FFD
:100580001D464FF0FF3BD5E9014691465F464FF0CF
:100590000008A9697F1C01988847296A8246884714
:1005A0000028F6D1BAF1FF3F0CD024F4C064002E2D
:1005B00019DD600614D5BAF12B0F09D0BAF12D0F51
:1005C0000ED103E0584604B0BDE8F09F44F48064C7
:1005D000A9697F1C01988847761E8246002E02DD9D
:1005E000BAF1300F03D0B9F1000F26D032E0A9697B
:1005F000761E44F400747F1C019888478246002EC2
:1006000005DDBAF1780F06D0BAF1580F03D0B9F171
:10061000000F10D01EE0B9F1000F02D0B9F1100F99
:1006200018D1A969761E24F400747F1C01988847AC
:100630008246102002E0082000E00A20814609E0FE
:1006400008FB0908A969761E44F400747F1C019810
:1006500088478246002E05DD4946504600F0D9FC09
:100660000028EDDAE96901988847A00502D46FF007
:100670000100A8E7E00725D1600613D5600502D583
:10068000C8F1000000E0404629680A1D2A60096898
:10069000220501D5087015E0220701D5088011E078
:1006A00008600FE02868011D29600068210502D557
:1006B00080F8008006E0210702D5A0F8008001E064
:1006C000C0F8008038467EE72DE9FF5FD2E901A738
:1006D0004FF00008916999461446DDF838B0464657
:1006E00001988847054659EA0B0005D009E0A16941
:1006F000761C019888470546216A284688470028C5
:10070000F5D1681C03D05FEACA7005D015E04FF040
:10071000FF3004B0BDE8F09F2068011D2160D0F8D3
:1007200000800AE05FEACA7001D108F8015BA169A4
:10073000761C7F1E019888470546002F1ADD681C2D
:1007400018D0B9F1000F0DD0E81705EBD0604211B9
:1007500020F01F0059F822102A1A0120904001426F
:10076000E0D107E0BBF1000FDCD1216A28468847C1
:100770000028D7D0E16901988847BBF1000F07D165
:10078000002E05DD5FEACA7002D1002188F8001052
:10079000A068B84203DDBBF1000F03D017B16FF0C2
:1007A0000100B6E73046B4E72DE9FF4F087883B083
:1007B0009946FF2805D0491C2D2804D0002400208C
:1007C00008E000200BE00124F9E700EB800003EBD8
:1007D0004000491C0B78FF2BF7D104B140420023A5
:1007E0000293147819461D462D2C01D02B2C04D1D0
:1007F000521C2D2C13D000240294AA461478FF2CEE
:100800000FD00A25A3FB057801FB05814FF0000CF2
:1008100003FB0C11521CE3194AEB0101EEE7012422
:10082000EAE7814453EA010002D019F5C87F06DAED
:1008300003980021C0E9001107B0BDE8F08F002542
:10084000AE4E2F46DFF8B882184600F0E4FDCDE941
:100850000001B9F1000002DAC9F1000400E0044629
:100860000023A74A1AEB030B42EB045A12E0E007FD
:1008700007D02A4633463846414600F06FFA07460D
:1008800088462A4633461046194600F067FA054660
:100890000E466410002CEAD1DDE90001B9F1000F29
:1008A0005A46534606DA00F0CBFA3A46434600F081
:1008B000C7FA05E000F052FA3A46434600F04EFA15
:1008C000029A0AB181F00041039AC2E90001B3E73C
:1008D0002DE9FF4F1F468DB0D7E901464FF0FF3895
:1008E0002E2045464FF000090B90B9696D1C0E98FB
:1008F0008847396A824688470028F6D1BAF1FF3F17
:100900000AD024F4D064002E11DDBAF12B0F08D0E8
:10091000BAF12D0F0BD102E0404611B08DE744F43F
:100920008064B9696D1C0E9888478246761E6946B8
:10093000600501D52D2000E02B208DF8000001F18D
:10094000010B0DF1200809E0B9696D1C0E9888476C
:1009500082460F9844F40074761E0560002E02DD76
:10096000BAF1300FF0D00B998A453ED144F08004A3
:1009700006E00F99681CA9F1010944F400740860AD
:10098000B9696D1C761E0E98884782463028F0D0D3
:100990002BE00B998A4505D1200603D444F080044E
:1009A000761E18E050460AF01BFF08B30DF1130243
:1009B000761EAAF1300044F40074934506D20BF879
:1009C000010B200607D5A9F1010003E0200602D49F
:1009D00009F101008146A00502D50F99681C086045
:1009E000B9696D1C0E9888478246002ED1DC53E011
:1009F000002E51DDBAF1650F02D0BAF1450F4BD18F
:100A0000A00549D5B9696D1C24F44074761E0E9872
:100A100088478246002E0CDD2B2804D0BAF12D0F1A
:100A200007D144F48074B9696D1C0E9888478246DA
:100A3000761EE00501D52D2100E02B2108F8011BD1
:100A4000CDF82C8021E00DF12901761E44F40074CC
:100A500088450CD2AAF1300010F0FF0088F80000A1
:100A600002D10B99884509D908F1010806E0E00593
:100A700001D5244801E042F20F708146B9696D1C2E
:100A80000E98884782460F980560002E04DD504678
:100A90000AF0A6FE0028D6D1F9690E988847FF20F3
:100AA0008BF8000088F800000020069007904B4665
:100AB0006A4608A906A8FFF777FEA00502D46FF0E2
:100AC00001002AE714F0240F0AD0E00714D1DDE971
:100AD00006123868031D3B600068C0E900120BE095
:100AE000DDE9060100F0A3FC0146E00704D1386807
:100AF000021D3A600068016028460EE700001440BD
:100B00000000F03FF1D8FFFF026811441378016044
:100B100018467047D16004495161044911620021AF
:100B20001161114600F084BA090B00081504000891
:100B3000426842B1016811F8013B23B1521EC0E97D
:100B40000012184670470121C160881E7047426834
:100B50005AB1C368016843B983688B4205D0491E06
:100B6000521CC0E90012002070474FF0FF30704760
:100B70002DE9F05F82460078002715468B460AF182
:100B80000104B946302801D09DB113E014F8010BDF
:100B90000127782803D0582801D045B10AE00DB1CB
:100BA000102D07D10027102514F8010B02E00825AD
:100BB00000E00A250026B0460EE005FB080005FB14
:100BC00006F1012701EB10461FFA80F8B6F5803FC9
:100BD00000D3B94614F8010B294600F01AFA002890
:100BE000EBDABBF1000F05D00FB1641E00E05446F4
:100BF000CBF80040B9F1000F06D00AF01BFD02212E
:100C00000160C81EBDE8F09F48EA0640FAE72DE9FA
:100C1000FE4F804681EA0300C00F0C46009021F091
:100C2000004123F00045B8EB0200A94105D240463F
:100C3000214690461C460B46024623F000401043D6
:100C400047D0270DC7F30A00C3F30A510290401A98
:100C5000019040286BDAC3F3130040F4801B009826
:100C6000924620B10023D2EB030A63EB0B0B0198F1
:100C70005946C0F14002504600F09AF906460D462A
:100C800050465946019A00F0B2F910EB0800614154
:100C9000002487EA115284EAE7731A4340D0009A8D
:100CA00062B3019A012A4FEA075215DC001B61EB7F
:100CB00002014FF0004202EA0752CDE90042001C57
:100CC00041F5801132462B4600F057FB03B0BDE8DA
:100CD000F08F40462146F9E7001B61EB0201001C42
:100CE00041F5801300185B412018A2F5001747EB6F
:100CF000030140EAD570B6196D4111E06D084FEA65
:100D0000360645EAC0754FEA0752001B61EB020147
:100D1000001C41F5801149084FEA3000001951418B
:100D200032462B4603B0BDE8F04F00F017BB0098E9
:100D3000012240000023D0EB020263EBE073009835
:100D400021464FEAE074B8EB000061EB0401E9E7EB
:100D500083F000435BE781F0004158E72DE9FE4F47
:100D600081EA030404F0004421F0004100944FF0B4
:100D7000000B23F0004350EA01045ED052EA030462
:100D80005BD0C3F30A54C1F30A552C44A4F2F334E4
:100D90000194A0FB0254C1F3130141F48011C3F389
:100DA000130343F4801301FB024400FB034E840A47
:100DB000970A44EA815447EA8357A4FB07680295DF
:100DC0008D0A05FB07854FEA932C04FB0C5427057D
:100DD000029D4FEA065847EA1637B5EB08056EEB59
:100DE000070C870E920E47EA811742EA8312A7FB8F
:100DF0000201B6EB0B0164EB00042B0D43EA0C334C
:100E00005E1844EB1C50DA465146E7FB0201C5F37D
:100E100013044FEA0B3343EA14534FEA0432019CA4
:100E200043EA0603A4F10C040294009CCDE900B44B
:100E300000F0A3FA03B0BDE8F08F00200146F9E707
:100E40002DE9F04D81EA030404F0004B21F0004548
:100E500014464FF0000A23F0004150EA050220D06A
:100E600054EA01021DD0C5F30A570246C5F3130325
:100E7000C1F31300C1F30A5640F4801543F4801304
:100E8000A7EB0608101BD64608F2FD3873EB0500E9
:100E900002D308F1010801E092185B41B8F1000F9C
:100EA00003DA00200146BDE8F08D00204FF48011E8
:100EB000064684460EE0171B73EB050705D3121B8D
:100EC00063EB050306434CEA010C49084FEA300086
:100ED00092185B4150EA0107EDD152EA030012D0AB
:100EE00082EA040083EA0501084305D0101BAB41E8
:100EF00006D20122002306E000224FF0004302E068
:100F00006FF0010253101AEB06004CEB085110EB86
:100F10000A0041EB0B01BDE8F04D00F01FBAC1F330
:100F20000A52C1F3130140F2FF3341F480119A4297
:100F300002DA00200146704740F233439A42A2F29F
:100F4000334202DC524200F042B800F031B80000F7
:100F500030B5041E71F1000404DB4FF00044404240
:100F600064EB0101141E73F1000405DB1C464FF015
:100F70000043524263EB0403994208BF904230BDE4
:100F80001CB509480090094801900546009C06E000
:100F9000E06840F0010394E8070098471034AC4241
:100FA000F6D3FFF7F3F80000FCCC00081CCD0008D6
:100FB000202A04DB203A00FA02F100207047914019
:100FC000C2F1200320FA03F3194390407047202A0E
:100FD00004DB203A21FA02F00021704721FA02F3E3
:100FE000D040C2F120029140084319467047202AA0
:100FF00006DBCB17203A41FA02F043EAE07306E041
:1010000041FA02F3D040C2F1200291400843194650
:1010100070473A2800D2303820F02002412A01D30C
:10102000A2F13700884201D34FF0FF307047000033
:101030002DE9F34F8BB04FF0000801F10C000C4686
:101040004FF0010B46460DF1080A0190626901213B
:1010500001989047051E2DD0252D2CD0216A884758
:10106000C0B16269012101989047216A8847002830
:10107000F7D1411E62690198904700E0761CA16992
:101080000B988847216A88470028F7D1E1690B98B7
:101090008847DBE7A1690B9888470746A84201D13A
:1010A000761CD3E7E1690B9888477F1C02D1B8F121
:1010B000000F6FD046E1002762693D46394601982E
:1010C00090472A2804D1626901210198904701259F
:1010D000DFF884926269012101989047A0F1300104
:1010E0000A290AD24F45E5DC07EB870100EB4107EF
:1010F000303FDFD445F01005ECE7E90601D46FF08E
:1011000000476C280AD04C2814D0682815D06A28CB
:101110000DD074281CD07A281AD01DE062690121F4
:10112000019890476C2802D045F0040514E045F082
:1011300002050DE045F020050AE0626901210198F1
:101140009047682802D045F0080505E045F40065A1
:101150006269012101989047C4E9015765283DD093
:1011600019DC58287AD00CDC452837D004DC252837
:1011700026D0412831D131E046282FD047282CD124
:101180002CE05B2877D0612828D063287CD06428A5
:1011900023D15AE0D0E06F2848D008DC66281DD063
:1011A00067281BD0692821D06E2816D127E0702827
:1011B00045D0732868D0752847D078280DD14DE0E8
:1011C000A1690B988847054625283FF469AFE16976
:1011D0000B9888476D1C3FF46AAFB3E023466A461C
:1011E0006FF001000B99FFF773FB9EE045F04000A4
:1011F0006060A80723464FF0000236D43EE0E807BF
:101200007FF447AF2068011D21600068290501D5E2
:1012100006701BE7290701D5068017E7A90703D544
:10122000F117C0E9006111E706600FE745F04000E3
:101230006060A80723464FF0080216D41EE040F66F
:101240000E0125EA0100606016E045F04000606094
:10125000A80723464FF00A0207D40FE045F04000EC
:101260006060A80708D5234610226FF001000B9993
:10127000FFF7D9F859E007E0234610226FF001008C
:101280000B99FFF77BF950E04FF000094F464B46B2
:10129000632802D05B2806D040E0E80601D4012094
:1012A000A06001273AE062690121019890475E2819
:1012B00005D14FF0010962694946019890472169BB
:1012C00039B900210A46534643F82120491C082910
:1012D000FADBB0B3216969B9C11700EBD1625311D0
:1012E0000AEB830122F01F02821A01200B68904052
:1012F00003430B6062690121019890475D28E8D1A2
:10130000B9F1000F09D00020514651F82020D243F6
:1013100041F82020401C0828F7DB02AB224600974A
:101320006FF001000B99FFF7CFF900280CDA401C91
:1013300008D1BBF1000F05D04FF0FF300DB0BDE874
:10134000F08FFFE74046F9E7E90701D108F101080E
:1013500006444FF0000B79E6CCCCCC0C10B5141E33
:1013600073F1000408DA401C41F1000192185B415E
:101370001A4301D120F0010010BD2DE9F04D924635
:101380009B4611B1B1FA81F202E0B0FA80F220324C
:101390009046FFF70DFE04460F4640EA0A0041EA78
:1013A0000B0153465A46084313D0114653EA010035
:1013B00019D0C8F140025046FFF709FE05460E4617
:1013C000504659464246FFF7F3FD084305D0012039
:1013D00004E020463946BDE8F08D0020054346EA8A
:1013E000E0762C4337430A986305E40AA0EB080033
:1013F0000022FD0A44EA47540A3002D50020014683
:10140000E9E7010510196941DDE90845001969415D
:10141000BDE8F04DA2E70EB540F233420292002241
:10142000CDE900221346FFF7A8FF03B000BD01F08D
:10143000004330B421F0004150EA010206D00A0D09
:10144000A2F56072C1F31301002A02DC30BC002057
:101450007047440F44EAC104C100E01830BC00EBFF
:10146000C250AFF300800029A8BF7047401C49005C
:1014700008BF20F00100704710B4B0FA80FC00FAF9
:101480000CF050EA010404BF10BC704749B1CCF124
:10149000200421FA04F411FA0CF118BF01212143B0
:1014A0000843A3EB0C01CB1D4FEA00614FEA10206B
:1014B00042BF002010BC704700EBC350104400290D
:1014C000A4BF10BC7047401C490008BF20F00100B9
:1014D00010BC70472DE9F0410024061B254671F130
:1014E000000605DA01240027D0EB070067EB0101B5
:1014F000161E73F1000605DA0027D2EB070201255C
:1015000067EB0303FEF751FF86460E4617469C46DF
:10151000AC4204D00025D0EB050E65EB010624B1EA
:101520000020D2EB000760EB030C704631463A46D0
:101530006346BDE8F08140EA01039B0703D009E060
:1015400008C9121F08C0042AFAD203E011F8013BAF
:1015500000F8013B521EF9D27047D2B201E000F808
:10156000012B491EFBD270470022F6E710B5134647
:101570000A4604461946FFF7F0FF204610BD00005A
:101580007CB507480090074801900546009C04E0A0
:101590002046016808448047241DAC42F8D17CBD38
:1015A0001CCD000820CD0008FFE7FEE780B501F064
:1015B000B3FF78B1FFE701F081FE0820C4F202001A
:1015C000002101F053FE40F2D000C2F200000121E0
:1015D0000170FFE780BD00007047000080B502F099
:1015E000DFF818B1FFE702F023F8FFE780BD000045
:1015F00082B0019040F64000C2F20000007818B9B5
:10160000FFE7002000900FE00198C0F3C62140F2F0
:10161000C072C2F20002515CC0F3022021FA00F055
:1016200000F001000090FFE7009802B07047000052
:1016300080B586B040F64000C2F200008069039099
:10164000FFE700F0D1FA04900498039988422CD265
:10165000FFE7EFF3108005900598029072B640F610
:101660004000C2F20000806901900198039988420D
:101670000ED1FFE7049840F64001C2F200018861F4
:10168000086901300861BFF35F8F0120009002E01C
:1016900000200090FFE7029810B9FFE762B6FFE76D
:1016A000009808B9FFE701E008E0FFE7049903A804
:1016B00000F0D0FF0028C4D0FFE7FFE7049806B091
:1016C00080BD000080B58CB04FF60061C0F2020111
:1016D000099140F63E61C2F2000108910790089816
:1016E00020B1FFE70798812803D3FFE700200A9085
:1016F000AEE00998FFF77CFF18B9FFE701200A90D8
:10170000A6E0FFF795FF0590BDF824000990EFF3E0
:1017100005800B900B98099941F40022002818BF0E
:101720001146099108980690079850B9FFE7099863
:1017300005990022002300F08DF8019001980A908D
:1017400086E0079808281BD8FFE700200290039046
:101750000699079A02A8FFF7EEFE079800F0070027
:10176000099941EA00400990099840F040700599B4
:10177000029A039B00F06EF8019001980A9067E0CE
:1017800000F03AFA4FF4E02101EA00400490069894
:101790000168406803900291069808300690079807
:1017A000083807900498099908430990099840F06F
:1017B00080700599029A039B00F04CF80190019803
:1017C00018B9FFE700200A9042E004984FF6017133
:1017D00008430990FFE7079809281CD3FFE70698FC
:1017E00001684068039002910698083006900798B7
:1017F0000838079009980599029A039B00F02AF887
:101800000190099801300990019818B9FFE700206C
:101810000A901DE0DFE70020029003900699079AE6
:1018200002A8FFF788FE099820F47F4009900798E6
:10183000099941EA00200990099840F00070059943
:10184000029A039B00F006F8019001980A90FFE7C6
:101850000CB080BD80B58CB00A90099108920793B6
:1018600007200590FFE70598002863D0FFE700F008
:10187000C7F90490049800F03F0040F2C031C2F272
:10188000000101EB0010069004984FF4700101EA8A
:10189000803001900A980199084309994FF08052CD
:1018A00002EAD101084308994FF0005202EA91017F
:1018B000084307994FF0804202EA5101084340F083
:1018C0000060039006980C30039900F0B9F903907A
:1018D0009DF80F004007002827D5FFE7039880F008
:1018E00000400390039800F000400290099820F017
:1018F00000400299084306990860089820F00040CB
:101900000299084306994860079820F00040029920
:1019100008430699886006980C30039900F05CFB38
:1019200000F084F901200B9009E0FFE705980138E9
:10193000059098E700F070F900200B90FFE70B98F6
:101940000CB080BD87B00590049103920498FE28E6
:1019500004D8FFE70398FF2803D3FFE70020069091
:1019600036E0002002900190FFE7019803282CD870
:10197000FFE705980199C840C007F0B1FFE7049858
:101980000090FFE700980399884215D8FFE7009878
:1019900000F00701012202FA01F1029A02EBD000E5
:1019A00040F2C072C2F20002135C19431154FFE707
:1019B000009801300090E5E7FFE7029820300290A0
:1019C000FFE7019801300190CFE701200690FFE783
:1019D00007B0704710B588B000200790012106912C
:1019E00040F64004C2F20004207040F2C070C2F21F
:1019F00000008021FFF7B8FD01F068F8ADF8120093
:101A0000206A42F26B71CEF2A51188420FD0FFE737
:101A100040F64000C2F2000042F26B71CEF2A51116
:101A20000162BDF8121041800121C1611CE040F645
:101A30004000C2F200004088BDF8121088420AD06F
:101A4000FFE7BDF8120040F64001C2F200014880F5
:101A50000120C86107E040F64000C2F20000C16901
:101A60000131C161FFE7FFE740F64000C2F200002C
:101A7000C069012812D1FFE740F64000C2F2000021
:101A80000021417041608160C16040F2C030C2F20B
:101A900000004FF48061FFF767FD20E00020009018
:101AA000FFE700983F2819D8FFE7009840F2C031BF
:101AB000C2F2000101EB001005900598C07B4007C1
:101AC000002806D5FFE70598C16821F04061C16094
:101AD000FFE7FFE7009801300090E2E7FFE740F6FC
:101AE0004000C2F20000C069012818D1FFE7AFF33F
:101AF000008001200290029820B1FFE700F078F802
:101B0000039002E000200390FFE7039840F64001B5
:101B1000C2F20001486100208861086117E0AFF35C
:101B2000008001200290029820B1FFE700F060F8E9
:101B3000039002E000200390FFE7039840F6400185
:101B4000C2F200014861002088610861FFE7029845
:101B500030B3FFE707980021FE22FFF7F3FE0F20C6
:101B6000EF21EF22FFF7EEFE0420FE21FE22FFF719
:101B7000E9FEFFF75DFD0190019940F64000C2F2D9
:101B800000004369C2694FF60070C0F20030FFF7F1
:101B900061FE069818B1FFE700F004F8FFE7FFE7E1
:101BA00008B010BD10B582B040F64000C2F200008F
:101BB000007818B1FFE70120019013E040F64000E3
:101BC000C2F2000001240470FFF732FD009000997A
:101BD0004FF60170C0F2003000220023FFF73AFEFA
:101BE0000194FFE702B010BD80B502F011F980BD8D
:101BF00080B503F0FFFB80BD80B500F079FD80BDAE
:101C000080B540F64000C2F20000043000F05AFDFA
:101C100080BD0000FFE7FEE780B540F64000C2F25D
:101C200000000C3000F04EFD80BD000080B540F695
:101C30004000C2F20000083000F044FD80BD00000A
:101C400087B005900491059800680390FFE79DF820
:101C50000F004007002803D5FFE70020069033E07F
:101C60000498039901F00041084340F0806002901D
:101C7000FFE7059902980190039B019AFFE751E85D
:101C8000000F984209D1FFE7FFE741E8002303B1C5
:101C900006E0BFF35F8F012104E0BFF32F8FFFE762
:101CA0000021FFE7CA0712B9FFE70390FFE701F041
:101CB00001008DF803009DF80300C0070028C6D07E
:101CC000FFE702980690FFE7069807B0704700000C
:101CD000FFE7FEE77047000086B005900491002002
:101CE0000390059800F0070002900298C0F10700E9
:101CF000052802D3FFE7042003E00298C0F10700A3
:101D0000FFE7019002980430062802D8FFE7002080
:101D100002E002980338FFE700900498019901223D
:101D200002FA01F10139084000998840039B02FA48
:101D300001F101391940084306B0704786B005909B
:101D400004910392059800F0070002900298C0F1F8
:101D50000700052802D3FFE7042003E00298C0F142
:101D60000700FFE7019002980430062802D8FFE739
:101D7000002002E002980338FFE7009004980199E0
:101D8000012202FA01F10139084000998840039BC1
:101D900002FA01F101391940084306B0704700000A
:101DA000EFF30980BFF36F8F154B1A681EF0100F09
:101DB00008BF20ED108A20E9F04F10602DE90900DE
:101DC0004FF0500080F31188BFF34F8FBFF36F8F38
:101DD00006F05AFE4FF0000080F31188BDE80900BC
:101DE00019680868B0E8F04F1EF0100F08BFB0EC9B
:101DF000108A80F30988BFF36F8F704700BF00BF60
:101E0000380A002080B582B004208DF804008DF8D7
:101E1000050000208DF8060002208DF807004FF421
:101E20000060009040F60040C4F20100694602F0F4
:101E3000C3F802B080BD000080B582B004208DF8E8
:101E400004008DF8050010208DF8060002208DF8A2
:101E500007004FF40060009040F60040C4F201001B
:101E6000694602F0A9F802B080BD00000000000041
:101E7000074B19680868B0E8F04F80F30988BFF392
:101E80006F8F4FF0000080F31188704700BF00BFD4
:101E9000380A002080B508F02BFF012803D0FFE7A7
:101EA00008F0FAF9FFE780BD4EF68850CEF2000048
:101EB000016841F47001016041F20000C4F20200C7
:101EC000016841F001010160FFE741F20000C4F246
:101ED00002000068C0F34000012801D0FFE7F4E7EA
:101EE00041F20400C4F20200016821F00301016024
:101EF000FFE741F20400C4F2020000688008800796
:101F000008B1FFE7F5E741F20000C4F20200016802
:101F10004FF6FF72CFF6F2621140016041F2040009
:101F2000C4F202000021016041F23000C4F202005C
:101F3000016041F20800C4F202004FF41F01016089
:101F40004EF60850CEF200004FF00061016070477D
:101F500080B582B044F60040C4F20000202106F0B3
:101F600037F970B1FFE744F60040C4F2000005F015
:101F7000E5FFADF80600BDF80600C0B207F02CFB87
:101F8000FFE702B080BD000080B582B043F60000DC
:101F9000C4F20100402106F01BF940B1FFE743F60F
:101FA0000000C4F20100402105F0F2FFFFE743F614
:101FB0000000C4F20100202106F00AF948B1FFE751
:101FC00043F60000C4F2010005F0B8FFADF80600CA
:101FD000FFE702B080BD000085B004900391039834
:101FE00020F0806002900498029901910199BFF35A
:101FF0005F8FFFE750E8002F40E80013002BF9D176
:10200000FFE7009205B07047FFE7FEE781B034209C
:102010008DF803009DF9030000280FD4FFE79DF918
:10202000030000F01F01012202FA01F140094EF203
:102030008022CEF2000242F82010FFE701B0704784
:1020400081B034208DF803009DF90300002813D4DB
:10205000FFE79DF9030000F01F01012202FA01F1E0
:1020600040094EF28012CEF2000242F82010BFF377
:102070004F8FBFF36F8FFFE701B0704781B08DF8CE
:1020800003009DF9030000280FD4FFE79DF903002A
:1020900000F01F01012202FA01F140094EF2001284
:1020A000CEF2000242F82010FFE701B070470000B6
:1020B00081B034208DF803009DF9030000280FD46F
:1020C000FFE79DF9030000F01F01012202FA01F170
:1020D00040094EF20012CEF2000242F82010FFE753
:1020E00001B070474EF60C50CEF200000068C0F30D
:1020F000022070474EF60C50CEF200000068C0F38C
:102100000220704782B08DF8070000919DF907000A
:1021100000280AD4FFE7009800019DF907104EF24D
:102120000042CEF2000288540BE0009800019DF8B6
:10213000071001F00F014EF61452CEF2000288543F
:10214000FFE702B07047000082B08DF807000091F1
:102150009DF9070000280AD4FFE7009800019DF9C7
:1021600007104EF20042CEF2000288540BE00098B5
:1021700000019DF8071001F00F014EF61452CEF247
:1021800000028854FFE702B07047000083B002905D
:10219000029800F0070000904EF60C50CEF20000BE
:1021A0000168019101994FF6FF02114001910199D7
:1021B000009A41EA02210022C0F2FA521143019131
:1021C0000199016003B0704780B584B0039102901B
:1021D00003F0F6F8019000200090FFE70098011D41
:1021E000009190B9FFE703F079F948B1FFE703F0F8
:1021F000DFF803F04BF903F0EDF803910290FFE7ED
:10220000FFE7019803F086F9E8E70298039904B024
:1022100080BD000080B5012003F090F880BD000073
:1022200082B042F20041C4F2010101910090009895
:10223000007801994A6800F0010022F4807242EAB5
:10224000002048600098407801998A6800F00100F9
:1022500022F0020242EA40008860009880780199EA
:102260008A6800F0010022F4006242EAC02088601F
:102270000098C07801380199CA6A00F00F0022F472
:10228000700242EA0050C86202B0704781B000900C
:1022900000980021017000984170009881700098AA
:1022A0000121C17001B0704781B042F20040C4F218
:1022B000010000900098816841F00801816001B040
:1022C0007047000082B042F20040C4F2010000906A
:1022D00000988068C008C00720B1FFE701208DF892
:1022E000070003E000208DF80700FFE79DF80700D6
:1022F00002B0704781B042F20040C4F20100009089
:102300000098816841F00401816001B070470000CD
:1023100082B042F20040C4F2010000900098806850
:102320008008C00720B1FFE701208DF8070003E017
:1023300000208DF80700FFE79DF8070002B0704706
:1023400081B000208DF803009DF8030042F20441A3
:10235000C4F201010A6800F00F0022F4702242EA80
:102360000040086001B0704782B042F20040C4F201
:102370000100019001208DF803009DF803000199F0
:102380008A6860F300028A6002B0704783B042F24C
:102390000040C4F20100029010208DF807000120D7
:1023A0008DF8060007208DF805009DF80700092824
:1023B0001CDCFFE70298006900909DF8070000EB25
:1023C0004000072101FA00F0009921EA0000009086
:1023D0009DF805009DF8071001EB41018840009928
:1023E000084300900098029908611DE00298C068B7
:1023F00000909DF8070000EB40001E38072101FA0D
:1024000000F0009921EA000000909DF805009DF879
:10241000071001EB41011E398840009908430090E4
:1024200000980299C860FFE79DF806000D281EDBA2
:10243000FFE70298C06A00909DF8060000EB80005C
:1024400041381F2101FA00F0009921EA00000090B4
:102450009DF807009DF8061001EB81014139884085
:1024600000990843009000980299C86241E09DF8E5
:10247000060007281EDBFFE70298006B00909DF81E
:10248000060000EB800023381F2101FA00F00099BC
:1024900021EA000000909DF807009DF8061001EB6E
:1024A00081012339884000990843009000980299DF
:1024B00008631DE00298406B00909DF8060000EB59
:1024C000800005381F2101FA00F0009921EA000080
:1024D00000909DF807009DF8061001EB8101053979
:1024E0008840009908430090009802994863FFE7EC
:1024F000FFE703B07047000082B042F20040C4F230
:102500000100019007208DF8030001208DF80200E2
:102510009DF80300082811DBFFE70198816841F06E
:10252000007181609DF8030000F0070001998A683E
:1025300022F4602242EA4040886010E001988168FD
:1025400021F0007181609DF8030000F007000199FF
:102550008A6822F4602242EA40408860FFE79DF8E2
:10256000020001998A6800F0010022F4801242EA18
:102570000050886002B0704782B042F20040C4F25E
:102580000100019000208DF803009DF803000199DF
:102590004A6800F0010022F4006242EAC02048606C
:1025A00002B0704710B582B042F20040C4F20100A0
:1025B0000190019981420CD1FFE70924C0F20C047B
:1025C0002046012100F054FD2046002100F050FD7E
:1025D00029E0019842F60001C4F2010188420CD1C1
:1025E000FFE70A24C0F20C042046012100F040FD60
:1025F0002046002100F03CFD14E0019843F6004124
:10260000C4F2010188420CD1FFE70F24C0F20C0490
:102610002046012100F02CFD2046002100F028FD7D
:10262000FFE7FFE7FFE702B010BD000081B0012027
:102630008DF803009DF8030042F20841C4F2010145
:102640000A6800F0010022F4000242EAC05008606B
:1026500001B0704785B040F64002C2F20002183265
:10266000049203900291049ADDF80CC00298019044
:10267000DCF80000019BFFE752E8001F81420BD10C
:10268000FFE7BFF35F8FFFE742E8003000B106E0ED
:10269000BFF35F8F012204E0BFF32F8FFFE700221B
:1026A000FFE7D00718B9FFE7CCF80010FFE702F00A
:1026B00001008DF803009DF8030000F0010005B053
:1026C0007047000083B00290029801210191DDF86B
:1026D00004C0FFE750E8002F02EB0C0340E8003194
:1026E0000029F7D1FFE70092009803B0704700007F
:1026F00082B040F64000C2F2000001300190019823
:1027000001218DF803109DF803C0FFE7D0E84F2F9B
:1027100002EB0C03C0E8413F0029F7D1FFE78DF839
:1027200002209DF8020002B07047000080B582B020
:102730000190FFE7012006F093F8FBE780B584B035
:1027400040F60000C4F2010003904FF48050ADF851
:102750000A0040F22D10C2F2000001780131017030
:102760000078142807DBFFE740F22D10C2F20000CA
:1027700000210170FFE740F22D10C2F20000007846
:102780003221484340F22611C2F2000109888842F2
:1027900006DAFFE70398BDF80A1001F083FB05E0B5
:1027A0000398BDF80A1001F073FBFFE740F2281010
:1027B000C2F2000001680131016005208DF80900B6
:1027C0009DF809000B2804DBFFE70A208DF80900BB
:1027D000FFE79DF80900002804DCFFE701208DF8E1
:1027E0000900FFE79DF809001421B1FBF0F0ADF8F6
:1027F0000600BDF80600002804DCFFE70120ADF864
:102800000600FFE740F22810C2F200000068BDF8A1
:102810000610B0FBF1F202FB1100002840F0AF807F
:10282000FFE79DF80900ADF8040040F22C1CC2F24D
:10283000000C9CF80010012200294FF0010118BF84
:102840004FF0FF31BDF8043040F2241EC2F2000EFA
:10285000BEF8000001FB0300AEF800009CF8000089
:10286000002818BF4FF0FF32012A18DBFFE740F2C3
:102870002410C2F200000088B0F57A7F0EDBFFE77B
:1028800040F22410C2F200004FF47A71018040F24D
:102890002C10C2F2000001210170FFE714E040F2A9
:1028A0002410C2F20000008800280CDCFFE740F290
:1028B0002410C2F200000021018040F22C10C2F26C
:1028C00000000170FFE7FFE740F22410C2F20000B1
:1028D0000088C7280CDCFFE740F22410C2F2000099
:1028E0000088800840F22611C2F20001088034E01E
:1028F00040F22410C2F200000088B0F5167F11DA11
:10290000FFE740F22410C2F200000088C83800EB54
:10291000D070322101EB500040F22611C2F20001CA
:10292000088019E040F22410C2F200000088A0F5EF
:10293000167040F2EE21484348F21F51C5F2EB11E8
:1029400050FB01F0C10901EBD070FA3040F22611C2
:10295000C2F200010880FFE7FFE740F22810C2F250
:10296000000000684EF66121884207D3FFE740F27D
:102970002810C2F2000000210160FFE7FFE704B069
:1029800080BD000083B001908DF80310019800789D
:10299000062863D8DFE800F00418622836445200A5
:1029A0009DF803004F2804D1FFE701980121017031
:1029B00009E09DF80300452804D1FFE701980321B1
:1029C0000170FFE7FFE74DE09DF803004B2806D1BB
:1029D000FFE70198022101700120029045E0019873
:1029E00000210170FFE73DE09DF80300522804D16B
:1029F000FFE701980421017003E0019800210170B4
:102A0000FFE72FE09DF80300522804D1FFE701986B
:102A10000521017003E0019800210170FFE721E02A
:102A20009DF803004F2804D1FFE7019806210170AB
:102A300003E0019800210170FFE713E09DF8030017
:102A4000522806D1FFE70198072101700220029069
:102A50000BE0019800210170FFE703E001980021DD
:102A60000170FFE700200290FFE7029803B0704773
:102A700080B582B002F0AEFC0191009040F20010EF
:102A8000C2F20000007EC007A8B1FFE702F026FDF9
:102A900080B1FFE702F09EFC0191009002F0B0FCD3
:102AA000009A019B80185941013041F100010090CA
:102AB0000191FFE706E000980199FFF785FB01917E
:102AC0000090FFE70098019902B080BD84B04BF6FA
:102AD000BC70C0F600000390182002904FF6FF7003
:102AE000ADF80600FFE7029890B3FFE70398411C9A
:102AF00003910078BDF8061081EA0020ADF80600C9
:102B000008200090FFE70098F0B1FFE7BDF806004D
:102B1000000400280DD5FFE7BDF806004000ADF821
:102B20000600BDF8060041F221014840ADF806005C
:102B300005E0BDF806004000ADF80600FFE7FFE73E
:102B4000009801380090DEE7029801380290CAE749
:102B5000BDF8060004B0704743F20800C4F202005A
:102B6000016841F0010101607047000081B04FF041
:102B7000FF300090009843F21001C4F20201086097
:102B800001B0704781B000208DF803009DF803006C
:102B900043F20801C4F202010A6800F0030022F0C7
:102BA000180242EAC000086001B0704781B041F6E7
:102BB000B750C0F2C1400090009843F21401C4F233
:102BC0000201086001B0704781B000208DF8030059
:102BD0009DF8030043F20801C4F202010A6800F004
:102BE000030022F0600242EA4010086001B0704722
:102BF00081B000208DF803009DF8030043F2080126
:102C0000C4F202010A6800F0010022F0800242EAE8
:102C1000C010086001B0704781B002208DF8030039
:102C20009DF8030000F0030041F20401C4F2020128
:102C30000A6822F4404242EA803008609DF80300AE
:102C40000A68800860F31C720A6001B070470000D7
:102C500081B000208DF803009DF8030041F20401CB
:102C6000C4F202010A6800F00F0022F0F00242EA0A
:102C70000010086001B0704781B004208DF8030097
:102C80009DF8030041F20401C4F202010A6800F059
:102C9000070022F4E06242EA0020086001B07047B9
:102CA00081B004208DF803009DF8030041F2040177
:102CB000C4F202010A6800F0070022F4605242EAFE
:102CC000C020086001B0704781B08DF803009DF806
:102CD0000300012809D1FFE741F25400C4F20200C9
:102CE000016841F03001016008E041F25400C4F293
:102CF0000200016821F030010160FFE701B0704778
:102D000081B08DF8030001208DF802009DF80300CA
:102D1000042843D8DFE800F0030E1D2C37009DF88F
:102D2000020041F20001C4F202010A6860F30002ED
:102D30000A6034E09DF8020041F20001C4F2020191
:102D40000A6800F0010022F4803242EA0040086084
:102D500025E09DF8020041F20001C4F202010A6878
:102D600000F0010022F0807242EA0060086016E084
:102D70009DF8020041F22001C4F202010A6860F3EA
:102D800000020A600BE09DF8020041F22401C4F247
:102D900002010A6860F300020A6000E0FFE701B088
:102DA0007047000080B588B007900020069005901D
:102DB000049003900290019000F050FA8DF8030007
:102DC0009DF8030030B1FFE7012824D0FFE7022877
:102DD00028D07EE041F25400C4F202000068400AAC
:102DE000C00780B1FFE741F23000C4F20200006882
:102DF000400EC00738B1FFE7079846F60041C0F221
:102E0000DC21016006E0079841F20021C0F27A015E
:102E10000160FFE764E0079841F20021C0F27A0107
:102E200001605DE041F20400C4F202000168C1F3F8
:102E3000004103910168C1F3834105910068C0F32B
:102E400041700490049820B9FFE705980F2807D136
:102E5000FFE70498059901EB00100130059003E0AD
:102E6000059802300590FFE7039848B9FFE70598F9
:102E700040F60011C0F23D0148430799086027E081
:102E800041F20400C4F202000068400CC007A8B17F
:102E9000FFE741F25400C4F202000068C0F30130C1
:102EA00006900698023041F20021C0F27A01B1FB8F
:102EB000F0F0059948430799086008E0059841F249
:102EC0000021C0F27A01484307990860FFE7FFE755
:102ED00006E0079841F20021C0F27A010160FFE7A5
:102EE00041F20400C4F202000168C1F3031102912F
:102EF00002994BF6D472C0F60002515C0191079919
:102F00000A68019BDA404A600168C1F3022102911C
:102F100002994BF6E47CC0F6000C1CF801100191FC
:102F200007994B68019A23FA02F2CA600168C1F35B
:102F3000C221029102991CF80110019107994A6877
:102F4000019BDA408A600168C1F300710291029925
:102F50000068C0F3813040EA8100029002984BF68D
:102F6000EC71C0F60001085C019007988168019A35
:102F7000B1FBF2F1016108B080BD000082B00190A8
:102F800000208DF80300BDF8060041F20001C4F2F4
:102F900002014058019901F01F01C840C00720B943
:102FA000FFE700208DF8030003E001208DF8030007
:102FB000FFE79DF8030002B07047000080B582B0C3
:102FC000002001908DF80300FFE71120FFF7D6FFE6
:102FD0000021012807D0FFE701980021B0F5405FEC
:102FE00038BF0121FFE7C80720B1FFE70198013092
:102FF0000190EAE71120FFF7C1FF012804D0FFE7A5
:1030000000208DF8030003E001208DF80300FFE7A6
:103010009DF8030002B080BD82B0019001208DF8C0
:1030200003009DF8030001280FD1FFE7019800F08D
:103030001F01012202FA01F1000C41F20002C4F268
:1030400002028358194381500FE0019800F01F01DC
:10305000012202FA01F1000C41F20002C4F2020264
:10306000835823EA01018150FFE702B07047000056
:1030700082B001908DF803109DF8030001280FD154
:10308000FFE7019800F01F01012202FA01F1000C94
:1030900041F20002C4F202028358194381500FE04A
:1030A000019800F01F01012202FA01F1000C41F227
:1030B0000002C4F20202835823EA01018150FFE7B3
:1030C00002B0704781B000208DF803003B208DF8DE
:1030D000020001208DF801009DF8030088B9FFE788
:1030E00041F20400C4F20200016821F48031016061
:1030F00041F23000C4F20200016841F00071016049
:103100001FE041F20400C4F20200016841F4803182
:1031100001609DF80300012809D1FFE741F2040096
:10312000C4F20200016821F40031016008E041F2BC
:103130000400C4F20200016841F400310160FFE7BD
:10314000FFE79DF8020000F00F0041F20401C4F215
:1031500002010A6822F4701242EA804008609DF879
:10316000020000F030000A6822F0C04242EA4060EB
:1031700008609DF801000A6822F0004242EAC0702F
:10318000086001B07047000041F20000C4F2020084
:10319000016841F001010160FFE741F20000C4F263
:1031A00002000068C0F34000012801D0FFE7F4E707
:1031B00041F20400C4F20200016821F00301016041
:1031C000FFE741F20400C4F20200006880088007B3
:1031D00008B1FFE7F5E741F20000C4F20200016820
:1031E0004FF6FF72CFF6F2621140016041F2040027
:1031F000C4F202000021016041F23000C4F202007A
:10320000016041F20800C4F202004FF41F010160A6
:103210007047000081B002208DF803009DF8030084
:1032200041F20401C4F202010A6860F301020A607B
:1032300000BF00BF00BF00BF00BF00BF00BF00BF96
:1032400000BF00BF00BF00BF00BF00BF00BF00BF86
:1032500000BF00BF00BF00BF01B0704741F20400D3
:10326000C4F202000068C0F38100704782B0019090
:103270008DF803109DF8030001990A6860F30002BD
:103280000A6002B07047000081B0009000980021F1
:103290000160009841600098018100984181009888
:1032A000017300984173009881730098C17300986E
:1032B00001740098417401B07047000081B0022091
:1032C00000900098B0F1805F09D9FFE7009820F0E6
:1032D000704040F20441C4F20201086005E0009829
:1032E0000421C4F202010860FFE701B0704700004A
:1032F00082B00022C4F2020201928DF803008DF820
:1033000002100198D0F8A400000EC00740B9FFE7F2
:103310000198D0F8A41041F08071C0F8A410FFE724
:103320009DF8030001280BD1FFE79DF802000199E9
:10333000D1F8A02022F0FF021044C1F8A0006AE0FA
:103340009DF8030002280CD1FFE79DF802000199C7
:10335000D1F8A02022F47F4242EA0020C1F8A00068
:1033600058E09DF8030003280CD1FFE79DF8020008
:103370000199D1F8A02022F47F0242EA0040C1F86E
:10338000A00046E09DF8030004280CD1FFE79DF85B
:1033900002000199D1F8A02022F07F4242EA0060A9
:1033A000C1F8A00034E09DF8030005280BD1FFE729
:1033B0009DF802000199D1F8A42022F0FF021044E8
:1033C000C1F8A40023E09DF8030006280CD1FFE714
:1033D0009DF802000199D1F8A42022F47F4242EA2C
:1033E0000020C1F8A40011E09DF8030007280CD1CB
:1033F000FFE79DF802000199D1F8A42022F47F0292
:1034000042EA0040C1F8A400FFE7FFE7FFE7FFE75B
:10341000FFE7FFE7FFE702B07047000082B00190CE
:103420000091019801684BF6EF721140016000981D
:10343000008901990A68104308600098407C01994E
:103440000A6800F0030022F4405242EA00300860AB
:103450000098C07B01990A6800F0030022F44062E2
:1034600042EA802008600098807B01990A6800F099
:10347000030022F4407242EA002008600098407B7A
:1034800001990A6800F0010022F0800242EAC010AF
:1034900008600098007B01990A6800F0010022F0A2
:1034A000400242EA801008600098007C01990A6896
:1034B00000F0010022F0200242EA4010086000986B
:1034C00040890199486000980068019988600098D7
:1034D00040680199C86002B07047000083B00820BE
:1034E000C4F2020002900220019001208DF8030036
:1034F0009DF8030030B1FFE7019802990A68104374
:10350000086006E0019802990A6822EA0000086053
:10351000FFE703B07047000083B002200290002054
:103520008DF8070000900298B0F1805F07D9FFE79F
:1035300040F20040C4F202000068009005E0002064
:10354000C4F2020000680090FFE700980299084268
:1035500004D0FFE701208DF8070003E000208DF87C
:103560000700FFE79DF8070003B0704782B00190A5
:103570000020009001990A6822F001020A60019976
:10358000086001994860019988600199C8600198B4
:103590000090009800F49F60C008802817D8FFE7CB
:1035A0009DF8000008384CF6CD41CCF6CC41A0FB8C
:1035B00001016FF0030000EA91000F2101FA00F011
:1035C0000421C4F202010A68104308601FE0009859
:1035D00000F49F60C008902818D8FFE79DF800000D
:1035E00008384CF6CD41CCF6CC41A0FB01016FF080
:1035F000030000EA91000F2101FA00F040F20441BB
:10360000C4F202010A6810430860FFE7FFE702B056
:103610007047000081B0009000980021417200982E
:1036200041600098012101720098017001B070475B
:1036300081B04FF40040009040F21040C4F201000D
:10364000006800990840884209D1FFE7009840F2DD
:103650001441C4F2010108600098086006E0009877
:1036600040F21441C4F201010860FFE701B0704765
:1036700082B001900020009001984068009000986E
:1036800040F20041C4F201010A6822EA0000086029
:10369000009840F20441C4F201010A6822EA0000E5
:1036A00008600198407A002856D0FFE7019800781A
:1036B00048B9FFE7009840F20041C4F201010A68EE
:1036C0001043086008E0009840F20441C4F2010190
:1036D0000A6810430860FFE7009840F20841C4F20E
:1036E00001010A6822EA00000860009840F20C41DB
:1036F000C4F201010A6822EA000008600198007A19
:1037000048B9FFE7009840F20841C4F201010A6895
:10371000104308601FE00198007A012809D1FFE7F3
:10372000009840F20C41C4F201010A68104308609D
:1037300010E0009840F20841C4F201010A68104309
:103740000860009840F20C41C4F201010A6810437D
:103750000860FFE7FFE7FFE702B0704782B04FF471
:103760000040019001208DF803009DF8030001281E
:1037700009D1FFE7019840F20041C4F201010A6853
:103780001043086009E0019840F20041C4F20101D1
:103790000A6822EA00000860FFE702B070470000F4
:1037A00083B04FF40040029000208DF80700009095
:1037B00040F21440C4F201000068029908400090F1
:1037C000009840F20041C4F20101096808400090ED
:1037D000009820B1FFE701208DF8070003E00020EA
:1037E0008DF80700FFE79DF8070003B07047000061
:1037F00081B003208DF8030042F20C00C4F20200F5
:103800000068C00720B1FFE700208DF803001FE02B
:1038100042F20C00C4F2020000688008C00720B128
:10382000FFE701208DF8030011E042F20C00C4F222
:10383000020000680009C00720B1FFE702208DF8F0
:10384000030003E003208DF80300FFE7FFE7FFE735
:103850009DF8030001B0704780B582B04FF0804002
:10386000019003208DF80300FFF7C2FF8DF80300DD
:10387000FFE79DF80310002029B9FFE70198002811
:1038800018BF0120FFE7C00740B1FFE7FFF7B0FF17
:103890008DF80300019801380190EAE7019820B9FA
:1038A000FFE704208DF80300FFE79DF8030002B056
:1038B00080BD000081B003208DF8030042F24C006F
:1038C000C4F202000068C00720B1FFE700208DF8B5
:1038D00003001FE042F24C00C4F2020000688008BE
:1038E000C00720B1FFE701208DF8030011E042F28C
:1038F0004C00C4F2020000680009C00720B1FFE7D5
:1039000002208DF8030003E003208DF80300FFE799
:10391000FFE7FFE79DF8030001B0704780B582B074
:103920004FF08040019003208DF80300FFF7C2FFA5
:103930008DF80300FFE79DF80310002029B9FFE789
:103940000198002818BF0120FFE7C00740B1FFE73A
:10395000FFF7B0FF8DF80300019801380190EAE706
:10396000019820B9FFE704208DF80300FFE79DF8D8
:10397000030002B080BD000042F21000C4F2020059
:10398000016841F08001016042F25000C4F202007F
:10399000016841F0800101607047000010B582B0FD
:1039A00043F60000C0F60000019003208DF80300EC
:1039B0000198B0F1006F23D3FFE701984FF6FF7134
:1039C000C0F6070188421BD8FFE742F21004C4F298
:1039D0000204206840F002002060019842F21401C5
:1039E000C4F202010860206840F040002060FFF748
:1039F00033FF8DF80300206820F0020020604AE0C9
:103A000001980021C0F60801884220D3FFE7019801
:103A1000000D80281BD8FFE742F25004C4F20204D4
:103A2000206840F002002060019842F25401C4F284
:103A300002010860206840F040002060FFF76EFF40
:103A40008DF80300206820F00200206022E0019839
:103A5000B0F1046F1DD3FFE742F29004C4F20204F8
:103A6000206840F002002060019842F29401C4F204
:103A700002010860206840F04000206000F050F82B
:103A80008DF80300206820F00200206000F006F8A6
:103A9000FFE7FFE7FFE702B010BD00004FF0046052
:103AA000006841F20000C0F64000006842F20000E9
:103AB000C0F640000068704781B003208DF8030015
:103AC00042F28C00C4F202000068C00720B1FFE798
:103AD00000208DF803001FE042F28C00C4F20200C7
:103AE00000688008C00720B1FFE701208DF80300BF
:103AF00011E042F28C00C4F2020000680009C00725
:103B000020B1FFE702208DF8030003E003208DF8C9
:103B10000300FFE7FFE7FFE79DF8030001B07047F0
:103B200080B582B04FF0FF30019003208DF8030084
:103B3000FFF7C2FF8DF80300FFE79DF80310002098
:103B400029B9FFE70198002818BF0120FFE7C00747
:103B500040B1FFE7FFF7B0FF8DF80300019801388F
:103B60000190EAE7019820B9FFE704208DF80300EF
:103B7000FFE79DF8030002B080BD000042F20400A0
:103B8000C4F2020040F22311C4F26751016048F60A
:103B9000AB12CCF6EF52026042F24400C4F20200D3
:103BA000016002607047000080B584B0029001910E
:103BB000019840F20001C2F20001884205D1FFE7FE
:103BC000029803F063FD039003E04FF0FF30039091
:103BD000FFE7039804B080BD80B5802006F07AFB33
:103BE0004BF2B421C2F2000108604FF4806006F08D
:103BF00071FB41F2A821C2F20001086080BD000003
:103C000080B544F64530C0F600004CF6DF31C0F612
:103C1000000140F2A833C2F20003802206F0B8FF90
:103C200044F6F510C0F600004CF61741C0F600014E
:103C300040F2A433C2F20003802206F0A9FF44F24E
:103C4000D170C0F600004CF6FB31C0F6000140F226
:103C50003813C2F20003802206F09AFF42F22D7060
:103C6000C0F600004CF60441C0F6000140F22013FB
:103C7000C2F20003802206F08BFF48F68130C0F6C6
:103C800000004CF60E41C0F600014BF2CC23C2F20C
:103C90000003802206F07CFF44F64970C0F6000065
:103CA0004CF6E831C0F6000140F2AC33C2F200033A
:103CB000802206F06DFF45F2A900C0F600004CF628
:103CC000D731C0F6000140F66403C2F2000380223F
:103CD00006F05EFF48F6E530C0F600004CF6F13124
:103CE000C0F600014BF2D443C2F200034FF48052FD
:103CF00006F04EFF80BD0000B0B584B000200290F9
:103D000000F070F840F64050C0F2030004F046F8AE
:103D10000DF1070000F02CF89DF80700112803D0E2
:103D2000FFE70298039021E00125029508208DF815
:103D300006000DF106048020214600F003FD062058
:103D40008DF806008820214600F0FCFC8DF8065016
:103D5000A420214600F0F6FC00208DF8060000208B
:103D6000214600F0EFFC02980390FFE704B0B0BDDD
:103D700080B584B0A821ADF80A1001900120009010
:103D800000F03EFC702000F0E7FB00F07DFC08B185
:103D9000FFE71DE09DF80A0000F0DEFB00F074FC78
:103DA00008B1FFE714E000F02BFC712000F0D4FB19
:103DB00000F06AFC08B1FFE70AE000F07FFB019920
:103DC000087000F05BFB00F03DFC0098039006E0FB
:103DD00000F038FC0020009000980390FFE704B04A
:103DE00080BD000010B540F60004C4F20104204676
:103DF000802100F04DF80A2003F0D0FF20468021FA
:103E000000F050F84CF2503003F0C8FF10BD000035
:103E100010B584B000240394029401F067FB019074
:103E20000094FFE70098011D009160BBFFE7FEF7DB
:103E30001FFE40F20012C2F20002D2E90034C018A4
:103E400061410290039102980399D2E90223801AFA
:103E500071EB030009DAFFE740F20010C2F2000044
:103E6000D0E902010391029008E00298039940F220
:103E70000012C2F20002C2E90201FFE7FFE7019867
:103E800001F052FBCEE70298039904B010BD000088
:103E900082B00190ADF80210BDF8020001994861AE
:103EA00002B0704782B00190ADF80210BDF8020078
:103EB0000199086102B0704781B0009000984FF6F8
:103EC000FF710160009800218171009801710098D4
:103ED0000421417100980121C17101B070470000B7
:103EE00082B001208DF807000F208DF80600002118
:103EF00000919DF8061001F00301890088400090B0
:103F00009DF806008008032853D8DFE800F0021669
:103F10002A3E00980821C4F201010A6822EA000042
:103F200008609DF807009DF8062002F00302920049
:103F300090400A68104308603CE000980C21C4F2ED
:103F400001010A6822EA000008609DF807009DF858
:103F5000062002F00302920090400A6810430860B5
:103F600028E000981021C4F201010A6822EA00004A
:103F700008609DF807009DF8062002F003029200F9
:103F800090400A681043086014E000981421C4F2BD
:103F900001010A6822EA000008609DF807009DF808
:103FA000062002F00302920090400A681043086065
:103FB00000E0FFE702B0704784B0039002910298DE
:103FC0000068ADF8000002988079032804D1FFE76B
:103FD0000020ADF802002FE002988079E0B9FFE7F9
:103FE0000298407900F00F00ADF802000298407985
:103FF000182805D1FFE7BDF80000039908610AE021
:1040000002984079282805D1FFE7BDF80000039900
:104010004861FFE7FFE70EE0029801798279C079F5
:1040200002F0080201F00401114400F0030008440A
:10403000ADF80200FFE7FFE79DF8000048B3FFE797
:1040400000200190FFE70198072821D8FFE7019899
:10405000BDF8001021FA00F0C007A0B1FFE70198F9
:1040600080000F2101FA00F003990A6822EA00009B
:104070000860BDF8020001998900884003990A6828
:1040800010430860FFE7FFE7019801300190DAE78D
:10409000FFE7BDF80000B0F5807F2DDBFFE79DF85E
:1040A0000100ADF8000000200190FFE7019807280B
:1040B00021D8FFE70198BDF8001021FA00F0C007F1
:1040C000A0B1FFE7019880000F2101FA00F00399E9
:1040D0004A6822EA00004860BDF8020001998900A0
:1040E000884003994A6810434860FFE7FFE701985A
:1040F00001300190DAE7FFE704B0704782B0019029
:10410000ADF8021000208DF80100BDF80200019901
:1041100089680140884204D0FFE700208DF8010043
:1041200003E001208DF80100FFE79DF8010002B0D7
:104130007047000085B0049001208DF80F009DF8B5
:1041400013000021C4F2010108430290BDF81200DF
:104150008DF803000498000A8DF8020004988DF889
:1041600001009DF802009DF803100844C0F12000F2
:104170004FF0FF3101FA00F0019001989DF8021014
:104180009DF803201144C1F12001C840019001981D
:104190009DF80310C840019001989DF803108840D5
:1041A0000190019802990A6822EA000008609DF8CF
:1041B0000F0050B1FFE79DF801009DF80310884003
:1041C00002990A6810430860FFE705B070470000D5
:1041D00080B582B040F23410C2F2000000780028AE
:1041E00052D1FFE740F23410C2F200000121017009
:1041F00000F010FC40F21C00C2F20000002164221A
:1042000000F04EFC40F23000C2F20000002100221B
:1042100000F046FC40F24400C2F2000000210022FF
:1042200000F03EFC40F25800C2F2000000210022E3
:1042300000F036FC40F26C00C2F200000021642263
:1042400000F02EFC40F28000C2F200004FF49671A4
:10425000002200F025FC40F29400C2F20000002190
:10426000002200F01DFC40F2A800C2F20000002174
:10427000002200F015FC40F2BC00C2F20000002158
:10428000642200F00DFCFFE700200190FFE7019899
:10429000082814DCFFE701984BF6F471C0F6000122
:1042A00051F8200000F0B6FA019940F29832C2F2BB
:1042B00000025054FFE7019801300190E7E740F217
:1042C0009830C2F20000007878B1FFE740F29830F1
:1042D000C2F200000078022803D0FFE7042801D0D2
:1042E00001E001E000E0FFE7FFE740F29830C2F2B2
:1042F0000000407878B1FFE740F29830C2F2000049
:104300004078022803D0FFE7032801D001E001E054
:1043100000E0FFE7FFE740F29830C2F2000080784B
:1043200078B1FFE740F29830C2F2000080780228AE
:1043300003D0FFE7032801D001E001E000E0FFE740
:10434000FFE740F29830C2F20000C07878B1FFE792
:1043500040F29830C2F20000C078022803D0FFE794
:10436000032801D001E001E000E0FFE7FFE740F2B1
:104370009830C2F20000007978B1FFE740F298303F
:10438000C2F200000079022803D0FFE7042801D020
:1043900001E001E000E0FFE7FFE740F29830C2F201
:1043A0000000407998B1FFE740F29830C2F2000077
:1043B0004079022806D0FFE7032804D0FFE705284C
:1043C00002D002E002E001E000E0FFE7FFE740F298
:1043D0009830C2F20000807998B1FFE740F298303F
:1043E000C2F200008079022806D0FFE7032804D03B
:1043F000FFE7052802D002E002E001E000E0FFE76D
:10440000FFE740F29830C2F20000C07998B1FFE7B0
:1044100040F29830C2F20000C079022806D0FFE7CF
:10442000032804D0FFE7052802D002E002E001E003
:1044300000E0FFE7FFE740F29830C2F20000007AA8
:1044400098B1FFE740F29830C2F20000007A0228EB
:1044500006D0FFE7032804D0FFE7052802D002E0DA
:1044600002E001E000E0FFE7FFE702B080BD0000EE
:1044700080B5052000F00AFF80BD000010B540F6B1
:104480000044C4F2010420464FF48061FFF700FDB0
:10449000FDF7D2FC20464FF40061FFF703FDFFF764
:1044A000E7FF20464FF48061FFF7FCFCFFF7E0FFD9
:1044B00020464FF48061FFF7EBFC10BD10B582B0D1
:1044C00008208DF8070000208DF80600FDF79AFC03
:1044D00040F60040C4F201004FF40061FFF7E2FC37
:1044E000FFE79DF80700411E8DF8071038B3FFE77E
:1044F0009DF8060040008DF8060040F60044C4F226
:10450000010420464FF48061FFF7C2FCFFF7B0FFC3
:1045100020464FF48061FFF7C5FCFFF7A9FF204656
:104520004FF40061FFF7EAFD012807D1FFE79DF88E
:10453000060040F001008DF80600FFE7D1E740F6E5
:104540000040C4F201004FF48061FFF7A1FC9DF828
:10455000060002B010BD000010B582B08DF8070053
:1045600008208DF80600FDF767FCFFE79DF80600C0
:10457000411E8DF8061090B3FFE740F60040C4F2EC
:1045800001004FF48061FFF783FC9DF807000006EF
:10459000002809D5FFE740F60040C4F201004FF4BF
:1045A0000061FFF77FFC08E040F60040C4F2010024
:1045B0004FF40061FFF76CFCFFE7FFF759FF9DF830
:1045C000070040008DF8070040F60040C4F20100EB
:1045D0004FF48061FFF766FCFFF74AFFC6E740F63D
:1045E0000044C4F2010420464FF48061FFF750FC00
:1045F00020464FF40061FFF755FC02B010BD0000EB
:1046000010B5FDF719FCFFF733FF40F60044C4F284
:10461000010420464FF40061FFF744FC20464FF4AC
:104620008061FFF73FFCFFF723FF20464FF4006156
:10463000FFF72EFCFFF71CFF20464FF48061FFF7C9
:1046400027FC10BD10B5FDF7F7FB40F60044C4F29F
:10465000010420464FF48061FFF71AFC20464FF416
:104660000061FFF715FCFFF703FF20464FF4806160
:10467000FFF718FCFFF7FCFE20464FF40061FFF740
:1046800011FCFFF7F5FE10BD10B582B032208DF899
:104690000600FDF7B7FB40F60044C4F201042046D3
:1046A0004FF48061FFF7F4FB20464FF40061FFF701
:1046B000F9FBFFF7DDFEFFE79DF8060038B3FFE7E3
:1046C00040F60040C4F201004FF40061FFF716FD10
:1046D000012814D0FFE740F60044C4F2010420464C
:1046E0004FF48061FFF7DEFBFFF7C2FE20464FF478
:1046F0008061FFF7CDFB00208DF807001DE0FFF77C
:10470000B7FE9DF8060001388DF80600D4E740F6A4
:104710000044C4F2010420464FF48061FFF7C2FB5D
:10472000FFF7A6FE20464FF48061FFF7B1FBFFF7CD
:104730009FFE01208DF80700FFE79DF8070002B0FB
:1047400010BD000080B586B0ADF8120003910120C5
:104750008DF80B0000200090FFF752FF7020FFF74C
:10476000FBFEFFF791FF08B1FFE727E09DF812007D
:10477000FFF7F2FEFFF788FF08B1FFE71EE0002019
:104780000190FFE701989DF80B1088420FDAFFE7D0
:1047900003980199405CFFF7DFFEFFF775FF08B152
:1047A000FFE70BE0FFE7019801300190EAE7012005
:1047B0000090FFF747FF0098059004E0FFF742FFE5
:1047C00000980590FFE706B080BD0000FFE7704746
:1047D00080B582B0019000F007F8FFE7FFF7F6FF21
:1047E0000A2004F03DF8F9E780B543F60000C0F672
:1047F0000000006844F63831C4F25411884207D1F1
:10480000FFE7FFF7BBF9FFF7C9F8FFF7B5F8FFE7D8
:1048100080BD000080B582B00190019802F0D4FD07
:104820008DF8030000208DF802000198C07904285B
:1048300000F2DC80DFE800F0033716B28D009DF84F
:10484000030058B1FFE701980221C17101980021CE
:1048500001810198C17301988181FFE701980021CE
:104860004181C3E09DF80300C0B1FFE701980189D1
:104870000131018101980189007C81420DDBFFE754
:1048800001980121C1718DF802100198817B0131DD
:104890008173019800210181FFE703E00198002165
:1048A000C171FFE7A2E09DF8030090BBFFE701980C
:1048B0000221C17101980021418101980189407C48
:1048C000814219DAFFE70198807B012804D1FFE7D4
:1048D00001980321C1710EE00198807B022809DB59
:1048E000FFE705208DF802000198002181730198EF
:1048F000C171FFE7FFE706E002208DF80200019892
:1049000000218173FFE70198002101810198C173A3
:104910001EE0019801890131018101980189407CE3
:10492000814214DBFFE70198C07B78B9FFE70320E1
:104930008DF8020001980121C17301980421C17111
:1049400001980021818101988173FFE7FFE7FFE76C
:104950004CE09DF8030048B9FFE701980221C171BE
:1049600001980021C1730198018116E001988189A5
:10497000013181810198C07C01280DDBFFE701989E
:104980008189C07C814207DBFFE704208DF80200AB
:10499000019800218181FFE7FFE727E09DF80300F0
:1049A00048B1FFE701980221C171019800210181FE
:1049B0000198418119E001984189013141810198B3
:1049C0004189807C81420FDBFFE70198807B0128D1
:1049D00004D1FFE702208DF80200FFE701980021D3
:1049E000C17101988173FFE7FFE7FFE79DF80200BF
:1049F00002B080BD80B582B00190FFE700F004F8FE
:104A0000142003F02DFFF9E780B5FFF7E1FBAFF3CA
:104A1000008080BD81B01420ADF80200BDF8020016
:104A2000012808DBFFE7BDF8020040F21801C2F2DE
:104A300000010880FFE701B07047000080B582B038
:104A400001900091019818B1FFE7009808B9FFE7BD
:104A500024E00098008800F0DBFA019908740098BF
:104A6000408800F0D5FA019948740098808800F0D9
:104A7000CFFA019988740098C08800F0C9FA0199AA
:104A8000C8740198007C48B9FFE7009800880128A5
:104A900004DBFFE7019801210174FFE702B080BD4C
:104AA00080B586B005901420ADF812004FF4487020
:104AB000ADF81000ADF80E10ADF80C20BDF81200E6
:104AC000ADF80400BDF81000ADF80600BDF80E000A
:104AD000ADF80800BDF80C00ADF80A00059801A972
:104AE000FFF7ACFF06B080BD80B584B04FF47840CE
:104AF000ADF80E00AFF3008040F21000C2F20000EB
:104B000001900198018840884843009001980188ED
:104B100001394088421E88B291B200F02DF9002080
:104B20000290FFE702980099884209D2FFE7BDF89A
:104B30000E0000F0FBF9FFE7029801300290F1E768
:104B400004B080BD80B582B0019000F00BF803F096
:104B50002BFCFFF7C9FFFFE74FF47A7003F080FEEC
:104B6000FAE70000B0B5322000F038FB40F6000450
:104B7000C4F2010420464021FFF794F901250120E9
:104B800000F02CFB20464021FFF782F90A2000F0BC
:104B900025FB20464021FFF785F9782000F01EFB19
:104BA00000F0D0F840F21001C2F2000188803620F7
:104BB00000F0A6F9002000F0ADF93A2000F0A0F9CD
:104BC000552000F0A7F9C02000F09AF90F2000F05E
:104BD000A1F90F2000F09EF9C12000F091F94120C9
:104BE00000F098F9C52000F08BF9002000F092F950
:104BF000572000F08FF9802000F08CF9B12000F0F0
:104C00007FF9A02000F086F9B42000F079F90220A5
:104C100000F080F9362000F073F9482000F07AF9AE
:104C20003A2000F06DF9552000F074F9212000F0D1
:104C300067F9002000F06EF9E92000F061F900202A
:104C400000F068F9F72000F05BF9A92000F062F9A4
:104C5000512000F05FF92C2000F05CF9822000F078
:104C600059F9E02000F04CF9002000F053F9092038
:104C700000F050F90C2000F04DF9022000F04AF944
:104C80000E2000F047F9052000F044F92F2000F035
:104C900041F9462000F03EF9472000F03BF904209E
:104CA00000F038F90E2000F035F90B2000F032F951
:104CB0002D2000F02FF9362000F02CF90F2000F005
:104CC00029F9E12000F01CF9002000F023F9102060
:104CD00000F020F9132000F01DF9032000F01AF96C
:104CE000102000F017F9062000F014F93A2000F027
:104CF00011F9462000F00EF9512000F00BF90620C2
:104D000000F008F9102000F005F90D2000F002F97C
:104D1000332000F0FFF8372000F0FCF80F2000F0FF
:104D2000F9F800F05FF8112000F0EAF8782000F0C0
:104D300055FA292000F0E4F840F2D000C2F2000059
:104D40000570B0BD81B00020ADF802004FF0D84032
:104D5000DA2101700120C6F600400178ADF802109A
:104D6000BDF80210007840EA0120ADF80200BDF85D
:104D7000020001B07047000080B582B00022ADF89B
:104D80000620ADF80420ADF80200ADF800102A208E
:104D900000F0B6F89DF8070000F0BCF89DF806009A
:104DA00000F0B8F89DF8030000F0B4F89DF8020098
:104DB00000F0B0F82B2000F0A3F89DF8050000F0FB
:104DC000A9F89DF8040000F0A5F89DF8010000F096
:104DD000A1F89DF8000000F09DF82C2000F090F85C
:104DE00002B080BD80B582B001208DF80700202080
:104DF0008DF806009DF8060040F008008DF80500CB
:104E0000362000F07DF89DF8050000F083F89DF84D
:104E1000070001281FD1FFE72A2000F071F80020C9
:104E200000F078F8002000F075F8012000F072F82A
:104E3000DF2000F06FF82B2000F062F8002000F077
:104E400069F8002000F066F8012000F063F83F20C8
:104E500000F060F81EE02A2000F052F8002000F078
:104E600059F8002000F056F8012000F053F83F20D8
:104E700000F050F82B2000F043F8002000F04AF832
:104E8000002000F047F8012000F044F8DF2000F097
:104E900041F8FFE79DF807009DF8061000F002F8C2
:104EA00002B080BD81B08DF803008DF802109DF82E
:104EB000020040F21001C2F20001C8719DF8030027
:104EC00001280DD1FFE740F21000C2F200000121DD
:104ED00081714FF4F07101804FF4A07141800CE0BA
:104EE00040F21000C2F20000002181714FF4A07165
:104EF00001804FF4F0714180FFE701B0704700007E
:104F000081B08DF803009DF803004FF0D841087080
:104F100001B0704781B08DF803009DF803000121B6
:104F2000C6F60041087001B07047000080B582B03D
:104F3000ADF806009DF80700FFF7ECFF9DF80600AE
:104F4000FFF7E8FF02B080BD80B582B00190FFE7B7
:104F5000FDF7F4FB012003F083FCF9E7B0B582B064
:104F60000020019004F036FE04F084FD04F0A2FB62
:104F700004F02AFD04F066FC04F058FB04F0A2FBE8
:104F80000824C4F202042046002104F00FFC20464D
:104F90000121FEF76BF904F0BBFB1C24C4F20204F0
:104FA00044F20C05C4F200052046294604F0FEFB3D
:104FB00020460121FEF75AF904F0D0FB3024C4F258
:104FC00002042046294604F0F1FB20460121FEF7A9
:104FD0004DF904F0E1FF04F09DFF04F03DFF04F003
:104FE000E3FE04F091FD04F0F5FB04F03DFE04F057
:104FF00061FE04F0B9FE04F04FFB04F081FF0020D5
:1050000000F09CF9FCF7E6FC04F010FCFFE7FEE77B
:1050100081B0ADF80000BDF8000038B1FFE740F204
:105020001800C2F20000008820B9FFE70020ADF8A8
:1050300002000DE0BDF8000040F21801C2F20001CC
:1050400009880844013890FBF1F0ADF80200FFE751
:10505000BDF8020001B0704780B584B08DF80F0034
:1050600005200290002001900090FDF743F802997E
:10507000019AFCF763FE00909DF90F000099FDF77F
:1050800063F89DF90F00FCF7F9FF04B080BD000044
:1050900080B582B003208DF807009DF80700FDF76A
:1050A00075F802B080BD000080B584B0039046F66C
:1050B0006560C0F26400CDF8070042F27400C6F2E9
:1050C0007350019046F27510C7F273200090FFE70D
:1050D0000A2003F0C5FBFBE781B0009040F200100E
:1050E000C2F2000040690099A0FB010101B07047C5
:1050F00080B582B0019100900098019940F20012B1
:10510000C2F2000252690023FCF7E4F902B080BD4C
:1051100080B584B00391029040F20010C2F200000A
:10512000407EC007B8B1FFE70298DDF80CC040F23E
:105130000012C2F200021269D317A0FB02E100FBC9
:1051400003100CFB02004FEA1E4141EA004100142B
:105150000190009110E002980399090441EA10417E
:10516000000440F20012C2F200021269D317FCF7E9
:10517000B1F901910090FFE70098019904B080BD5A
:1051800084B0039040F20010C2F20000407EC007DD
:1051900068B1FFE70398000440F20011C2F2000179
:1051A0000969B0FBF1F000210191009011E0039832
:1051B00040F20011C2F200010969CA17A0FB0113F5
:1051C00000FB0230090C41EA0041001401900091FB
:1051D000FFE70098019904B07047000080B588B0DF
:1051E00007900798FFF778FF0591049040F2301080
:1051F000C2F2000000685B2806DBFFE740F23010D7
:10520000C2F20000006801E05A20FFE70390049812
:105210000599039AD317101A73EB010001DBFFE71E
:105220002BE003980499059A091A62EBE070049147
:105230000590FEF7EDFD049A059B801859410490F6
:105240000591FFE7FEF7E4FD0191009000980199B8
:10525000049A059B801A71EB030001DBFFE70CE069
:1052600004980599009A019B801A9941FFF740FF25
:1052700000F006F8FFE7FFE7E4E708B080BD0000B4
:1052800082B00191009002B07047000080B588B0F4
:1052900007900798FFF774FF0591049040F23010D3
:1052A000C2F2000000685B2806DBFFE740F2301026
:1052B000C2F20000006801E05A20FFE70390049862
:1052C0000599039AD317101A73EB010001DBFFE76E
:1052D0002BE003980499059A091A62EBE070049197
:1052E0000590FEF795FD049A059B8018594104909E
:1052F0000591FFE7FEF78CFD019100900098019960
:10530000049A059B801A71EB030001DBFFE70CE0B8
:1053100004980599009A019B801A9941FFF7F8FEBD
:1053200000F006F8FFE7FFE7E4E708B080BD000003
:1053300082B00191009002B07047000010B584B0B7
:105340008DF80F0000248DF80E4000F0CFF8029089
:105350000194FFE70198011D0191C8B9FFE79DF88D
:105360000F0000F0010040F20011C2F200010876C7
:105370009DF80F0000F0010000F04AF801208DF8C0
:105380000E0000F015F8FFE7029800F0CDF8E1E715
:1053900002F032FD40F20010C2F200000021C0E92C
:1053A0000011C0E90211AFF3008004B010BD00008D
:1053B0004EF60450CEF200004FF0007101607047CD
:1053C00082B0EFF3108001900198009072B60098BF
:1053D00002B070474EF21400CEF2000000684EF2A8
:1053E0001801CEF200010968401A4FF0000161F186
:1053F0000001704740F20C00C2F2000000687047E4
:105400004EF21400CEF20000006800217047000048
:1054100080B584B08DF80F00FFE79DF80F00C0073E
:1054200008B1FFE730E000F06BF802900020019037
:10543000FFE70198011D019128BBFFE74EF2100024
:10544000CEF20000002101604EF21402CEF2000202
:105450006FF07F4313604EF62352CEF200021170BC
:105460004EF21802CEF200021160072101604EF6E2
:105470000450CEF200004FF000710160FFE7029887
:1054800000F05CF8D5E7FFE704B080BD80B584B0DC
:10549000FFF7B6FF013041F100010290039100F0E7
:1054A00025F8019000200090FFE70098011D009171
:1054B00088B9FFE70298039940F2001CC2F2000C81
:1054C000DCE90032C0185141CCE90001FFE7019846
:1054D00000F02AF8E9E704B080BD00004EF6045061
:1054E000CEF200000068C0F38060704782B0EFF336
:1054F000108001900198009072B6009802B0704739
:1055000082B0EFF3108001900198009072B600987D
:1055100002B0704782B0009000980190019880F32B
:10552000108802B07047000082B00090009801908F
:10553000019880F3108802B07047000082B000909C
:1055400000980190019880F3108802B07047000025
:1055500080B5A6B02590249106208DF88F00249860
:1055600028B1FFE72498FAF763FE70B9FFE7259B9F
:105570009DF88F0000904CF26172C0F600020DF1B0
:105580000F00802106F03CF80FE0259B24989DF841
:105590008F10019100904CF27772C0F600020DF16D
:1055A0000F00802106F02CF8FFE70DF10F0040F608
:1055B000B83100F0ADFC26B080BD0000B0B5EEB053
:1055C00040F6CA00C2F200006C9000F121016B911C
:1055D000002180F862104CF2FD20C0F6000005F0BA
:1055E000FFFF4CF24770C0F600004FF4FA6100F084
:1055F0008FFC50B1FFE74CF21C30C0F6000005F004
:10560000EFFF4FF0FF306D90D5E04FF4FA7003F0EC
:1056100027F96C9B6B9800904CF22272C0F6000246
:105620004BAC2046802105F0EBFF6C994CF2014019
:10563000C0F6000005F0D4FF204643F6982100F0A4
:1056400067FC4A904A9850B1FFE74CF20B20C0F635
:10565000000005F0C5FF4FF0FF306D90ABE005F0A6
:1056600063FB4990FFE705F05FFB4999401A42F25E
:105670000F71884200F29580FFE74CF6EF20C0F6EC
:10568000000009A94FF480724FF4FA6303F0C0FEE2
:10569000002840F08180FFE74FF0FF3008900020A5
:1056A00007900690059004904CF2CE71C0F6000170
:1056B00009A8FAF795FD03900398002840D0FFE76A
:1056C00003980630039003982C21FAF7A7FD029067
:1056D0000298A0B3FFE70298002404700398FAF739
:1056E00041FE08900298013003900194FFE7019871
:1056F000052811DCFFE703982C21FAF78FFD0290B3
:10570000029808B9FFE708E0029801300390FFE72C
:10571000019801300190EAE7FFE703982C21FAF79E
:105720007DFD0290029848B1FFE7029800210170C8
:10573000039904A80F22FAF765FDFFE7FFE7FFE7EB
:105740000898032827D1FFE74CF28F71C0F60001BB
:1057500004A8FAF774FDF0B1FFE704A82E21FAF7C8
:105760005DFDC0B1FFE740F6CA05C2F2000505F1D4
:10577000630404A920460F22FAF744FD012085F8AE
:1057800062004CF26C40C0F60000214605F028FF94
:1057900000206D900FE0FFE74FF4FA7003F060F81F
:1057A00061E74CF2CF60C0F6000005F019FF4FF042
:1057B000FF306D90FFE76D986EB0B0BD10B59CB036
:1057C0005020ADF86A00BDF86A304CF63332C0F6AE
:1057D00000020DF14A042046202105F011FF0DF1D1
:1057E0000A012046402240F6B83303F011FE019032
:1057F000019858BBFFE74CF2D571C0F600010DF1DE
:105800000A00FAF7EDFC0090009898B1FFE70098C5
:10581000063000900098FAF7A5FD40F63C61C2F210
:105820000001088009884CF22A10C0F6000005F03B
:10583000D7FE08E04CF2BE40C0F600000DF10A01B0
:1058400005F0CEFEFFE700201B900CE001994CF222
:10585000E050C0F600000DF10A0205F0C1FE4FF065
:10586000FF301B90FFE71B981CB010BD10B592B025
:105870004CF2B970C0F600000190C82000904CF6C0
:105880004242C0F6000202AC20464021642305F0EB
:10589000B7FE20464FF4FA6100F03AFB12B010BD9B
:1058A00080B5ADF5067D85904FF40060ADF812022D
:1058B0000DF112004FF40071FBF756FE002003902B
:1058C0000290FFE7029840F69031C2F200010968A9
:1058D000884221DAFFE703990DF112000844C1F56F
:1058E0000071029A02EB021240F69433C2F20003F6
:1058F00003EB420393F92120019200934CF6C72257
:10590000C0F6000205F07CFE039908440390FFE70F
:10591000029801300290D5E78598BDF812124CF23A
:10592000EC72C0F600020DF1120305F069FE0DF5F0
:10593000067D80BDB0B59EB01D901C911B921D9937
:105940004CF23850C0F6000005F04AFE1D984CF2AB
:105950001B71C0F600010622FAF77FFC48B1FFE791
:105960001D984CF61131C0F60001FAF739FC48B128
:10597000FFE71C98FFF794FF1C98FAF759FC1B9956
:1059800008807EE01D984CF6CA31C0F600010C225A
:10599000FAF763FC002864D1FFE71D984CF2180168
:1059A000C0F60001FAF71CFC1A901A98002857D08C
:1059B000FFE71A9804301A900DF147042046212180
:1059C000FBF7D2FD0DF1060528464121FBF7CCFD82
:1059D0001A9821462A4600F057F888BBFFE70DF1D8
:1059E00006042046FAF724FC02464CF27410C0F676
:1059F00000000DF14705294605F0F2FD40F6CA000A
:105A0000C2F2000029462022FAF7FCFB2130214691
:105A10004022FAF7F7FB1C984CF6BC42C0F6000295
:105A20004FF4006105F0ECFD1C98FAF701FC1B999E
:105A3000088040F63D10C2F20000032101700EE024
:105A40001C984CF66C42C0F600024FF4006105F061
:105A5000D7FD1C98FAF7ECFB1B990880FFE7FFE7DE
:105A60000EE01C984CF67C32C0F600024FF4006148
:105A700005F0C6FD1C98FAF7DBFB1B990880FFE7D1
:105A8000FFE71EB0B0BD000010B592B011901091AC
:105A900021200F900E9241200D9011980C900C989F
:105AA0004CF2DC71C0F60001FAF79AFB0B900B98F0
:105AB00000287ED0FFE70B9805300B900B9826212D
:105AC000FAF7ACFB0A900A9830B9FFE70B980D2162
:105AD000FAF7A4FB0A90FFE70A9838B9FFE70B9C96
